:020000022000DC
:1070000000F003206D7302005573020057730200F5
:10701000597302005B7302005D7302000000000000
:107020000000000000000000000000005F7302008C
:1070300061730200000000006373020065730200C8
:1070400067730200677302006773020067730200D0
:1070500067730200677302003D83020067730200DA
:1070600067730200677302004DA703006773020095
:1070700067730200677302006773020067730200A0
:1070800067730200D944040001DA0200677302004A
:107090003D45040067730200ADD70300677302002B
:1070A0006773020067730200677302006773020070
:1070B0006773020067730200000000000000000018
:1070C0006773020067730200677302006773020050
:1070D0006773020067730200677302006773020040
:1070E000677302006773020067730200000000000C
:1070F00000000000677302000000000067730200D8
:10710000000000000000000000000000000000007F
:10711000000000000000000000000000000000006F
:10712000000000000000000000000000000000005F
:10713000000000000000000000000000000000004F
:10714000000000000000000000000000000000003F
:10715000000000000000000000000000000000002F
:10716000000000000000000000000000000000001F
:10717000000000000000000000000000000000000F
:1071800000000000000000000000000000000000FF
:1071900000000000000000000000000000000000EF
:1071A00000000000000000000000000000000000DF
:1071B00000000000000000000000000000000000CF
:1071C00000000000000000000000000000000000BF
:1071D00000000000000000000000000000000000AF
:1071E000000000000000000000000000000000009F
:1071F000000000000000000000000000000000008F
:10720000344935480A1A02D0072291438D46334942
:1072100033480A1A06D00722914381F309880222D3
:1072200082F314882F483049304A00F042F8304841
:107230003049314A00F03DF830483149314A00F0D8
:1072400038F831483149324A00F033F83148324990
:10725000324A00F02EF832483249334A00F029F819
:1072600032483349334A00F024F833483349002286
:1072700000F02AF832483349002200F025F832485D
:107280003249091A082902DB0022026041601F48C6
:107290001F49884205D00268043003B4904703BCFC
:1072A000F7E700208646EC4600200021284A904758
:1072B000FEE7884207D0521A05D0037801300B70E0
:1072C0000131013AF9D17047884202D00270013091
:1072D000FAE7704700F0032000E8032000F00320E5
:1072E00000F0032004970400002E00205C300020F2
:1072F000A0730200A0730200A670040004970400AB
:10730000002E0020002E0020407404004074040071
:10731000407404004074040040740400407404008D
:107320004074040040740400049704006099040051
:107330005C3000205C3000205C300020D16F0020E9
:10734000D46F0020D46F0020D46F0020D4730020AD
:10735000AD7B0200FEE7FEE7FEE7FEE7FEE7FEE7A5
:10736000FEE7FEE7FEE7FEE700F002B8FFF7FCBF2E
:1073700008484FF00701884385460748804707487B
:10738000016841F470010160BFF34F8FBFF36F8F4D
:10739000FFF736BF00F00320A5DB030088ED00E017
:1073A00041DF70470D4B1B6813F4804F03D00C4B2B
:1073B0001B68032B00DC704700B585B0094BD3F880
:1073C000043502920191084A0092B522074904202F
:1073D00007F038FC05B05DF804FB00BF0C3000205E
:1073E0000830002000100140A87404009F740400BD
:1073F00010B50C460E2000F0E9FE207010BD10B54F
:107400000C460D2000F0E2FE207010BD08B50F20E4
:1074100000F0DCFE08BD000010B582B00C460D4B3C
:107420001B6813F4804F03D00B4B1B68032B05DC48
:1074300021460E2000F0D5FE02B010BD074BD3F858
:1074400004350191064A009291220649042007F072
:10745000F9FBEDE70C30002008300020001001405F
:10746000D07404009F74040010B582B00C460D4B1C
:107470001B6813F4804F03D00B4B1B68032B05DCF8
:1074800021460D2000F0ADFE02B010BD074BD3F831
:1074900004350191064A009288220649042007F02B
:1074A000D1FBEDE70C300020083000200010014037
:1074B000F47404009F74040010B582B00C460E4BA7
:1074C0001B6813F4804F03D00C4B1B68032B06DCA6
:1074D00021460F2000F085FE204602B010BD084B6B
:1074E000D3F804350191074A0092982206490420F6
:1074F00007F0A8FBECE700BF0C30002008300020AC
:1075000000100140187504009F74040000B583B09A
:107510000F4B1B6813F4804F03D00E4B1B68032BDB
:107520000ADC0322C8214FF4F03000F077FE0BF0A4
:10753000BBF903B05DF804FB074BD3F80435074AE9
:107540000092CC220649042007F07CFBE9E700BF4B
:107550000C3000200830002000100140307504007D
:107560009F74040010B582B0441C5E4B1B6813F47A
:10757000804F03D05C4B1B68032B07DC601E032885
:1075800000F29A80DFE800F00E305179574BD3F8C3
:1075900004350194564A0092E7225649042007F028
:1075A00051FBEBE74F4B1B6813F4804F03D04E4B5E
:1075B0001B68032B0DDC0D2000F008FE80F001019C
:1075C000C9B20D2000F00DFE4B4800F0DFFB02B009
:1075D00010BD464BD3F80435484A0092EF22454986
:1075E000042007F02FFBE6E73E4B1B6813F4804FA7
:1075F00003D03D4B1B68032B0CDC0E2000F0E6FD96
:1076000080F00101C9B20E2000F0EBFD3C4800F013
:10761000BDFBDCE7354BD3F804353A4A0092F6223D
:107620003449042007F00EFBE7E72E4B1B6813F4E8
:10763000804F03D02C4B1B68032B12DC0F2000F073
:10764000C5FD80F00101C9B20F2000F0CAFD0F2076
:1076500000F0BCFD80F00101C9B22B481FF004F915
:10766000B5E7224BD3F80435284A009240F20712BE
:107670002049042007F0E6FAE0E70BF0B5F8A0B9DE
:10768000184B1B6813F4804FA1D0174B1B68032BBA
:107690009DDD164BD3F804351D4A009240F21B12B3
:1076A0001449042007F0CEFA91E70CF0EBFD0BF043
:1076B00091F8FFF72BFF8AE70A4B1B6813F4804F02
:1076C00085D0094B1B68032B81DD084BD3F80435AB
:1076D000104A009240F221120649042007F0B2FA43
:1076E00075E700BF0C30002008300020001001407A
:1076F0004C7504009F740400002E00206075040087
:10770000E82E002078750400A03000209075040059
:10771000A87504003077040000B583B03138032821
:1077200014D90D4B1B6813F4804F11D00B4B1B6801
:10773000032B0DDD0A4BD3F804350A4A009240F2C0
:107740002F120949042007F07DFA01E0FFF70AFF34
:1077500003B05DF804FB00BF0C30002008300020AF
:1077600000100140307704009F74040008B50378CE
:10777000232B00D008BDFFF7C9FEFBE700B58DB095
:107780002022002103A81FF029FC01238DF80C30D2
:1077900007238DF80F3006238DF814301F4B079305
:1077A0001F4B0B931F4903A80BF022F860B30B2863
:1077B00029D11D4B1B6813F4804F03D01B4B1B6852
:1077C000032B14DC184B1B6813F4804F1CD0174B91
:1077D0001B68032B18DD164BD3F80435154A0092AD
:1077E0004FF4B7721449042007F02CFA0CE0104B48
:1077F000D3F80435114A009240F26D120E4904206C
:1078000007F020FADEE710B90DB05DF804FB0C4A72
:1078100040F2731116F0BEFAF6E700BF6D77020072
:10782000B97902005C3000200C30002008300020C4
:1078300000100140307604009F740400E0750400DD
:107840005C74040000B583B01D4A05214FF410306C
:1078500007F0DCF91B4B1B6813F4804F03D01A4B65
:107860001B68032B13DC1CF06DFEE0B900F01AFD61
:10787000164800F037FDE0B901F08CF801F0C0F8CF
:1078800001F0ECF8FFF77AFF03B05DF804FB104B52
:10789000D3F804350F4A00924FF4BD720E4904200C
:1078A00007F0D0F9DFE70D4A4FF4BE7116F072FA17
:1078B000DCE70A4A4FF4C07116F06CFADCE700BF4F
:1078C000E1EB02000C30002008300020657502005A
:1078D000001001406C7604009F7404005C74040086
:1078E00000B583B00021294800F06CFA10BB284B8A
:1078F0001B6813F4804F03D0264B1B68032B1EDC40
:107900000121254800F05EFA38BB214B1B6813F4B7
:10791000804F03D01F4B1B68032B23DC1F48204BD9
:107920004360204B836002211EF076FF40BB03B012
:107930005DF804FB1C4ABD2116F02CFAD7E71B4B5F
:10794000D3F80435114A12880192194A0092BE22D6
:107950001849042007F076F9D2E7134AC02116F03F
:1079600019FAD2E7114BD3F804350B4A1288019269
:107970000F4A0092C1220F49042007F063F9CDE7B6
:10798000094AC52116F006FAD1E700BF002E0020F3
:107990000C30002008300020E82E0020A03000200D
:1079A0000D740200B97402005C7404000010014000
:1079B0009C7604009F74040000B583B00C4B1B68D8
:1079C00013F4804F03D00B4B1B68032B04DCFFF731
:1079D00087FF03B05DF804FB074BD3F80435074A73
:1079E00000924FF4AD720649042007F02BF9EEE740
:1079F0000C3000200830002000100140B876040050
:107A00009F74040010B5044600214FF4F03000F0DC
:107A1000F9FB04EB8404620032214FF4C03000F023
:107A2000FDFB10BD08B500F02FFC08BD00B585B00A
:107A300003A810F059FE0D4B1B6813F4804F03D0C0
:107A40000B4B1B68032B02DC05B05DF804FB094BF4
:107A5000D3F80435BDF80C200192074A00924FF488
:107A6000A2720649042007F0EDF8EDE70C30002083
:107A70000830002000100140D87604009F740400F4
:107A800030B58BB06421244800F03AFB234B1B78BF
:107A90008BB903AC224D0FCD0FC495E8070084E8E5
:107AA000070003A800F0CAFA38B11E4A4FF4CF719C
:107AB00016F070F901E0FFF7B9FF01F0F5F800F0FA
:107AC00073FC0AF0E1FEA8B9174B1B6813F4804F52
:107AD00003D0164B1B68032B12DC00214FF4F0304F
:107AE00000F090FB0222C8214FF4F03000F096FB2A
:107AF0000BB030BD0B4A40F2A71116F04BF9E3E78B
:107B00000B4BD3F804350B4A009240F2A9120A49F4
:107B1000042007F097F8E0E7197702005C300020B6
:107B20000C7704005C7404000C3000200830002046
:107B300000100140307704009F74040000B583B04A
:107B4000154B1B6813F4804F03D0144B1B68032B99
:107B500015DC00F055FF00F081FFFFF767FF00F034
:107B600093FB00214FF4F03000F04CFB0422C821BD
:107B70004FF4F03000F052FB03B05DF804FB084B0B
:107B8000D3F80435074A009240F24912064904200E
:107B900007F058F8DDE700BF0C3000200830002067
:107BA00000100140F07604009F74040008B5FFF750
:107BB00049FEFFF765FFFFF7F3FBFCE7002380F8C2
:107BC00064302D23036621B14A6882670B688365A0
:107BD0007047002383678365704708B5436B13B113
:107BE00090F84010984708BD30B583B0044615465C
:107BF000124B1B6813F4804F03D0114B1B68032BEF
:107C000011DCA36B04F140012046984794F8403002
:107C10002B7094F842306B7004F1480000F088FD3E
:107C2000686003B030BD074BD3F80435064A0092B4
:107C300069220649042007F005F8E2E70C3000202D
:107C40000830002000100140B8780400AA78040031
:107C5000F0B585B0044615461F460A9E1C4B1B68AE
:107C600013F4804F03D01B4B1B68032B19DCA36B51
:107C70000DF10F0120469847002384F8E4302B785B
:107C800084F842309DF80F20934217D1002536B179
:107C900094F84030337094F842307370756005B0DA
:107CA000F0BD0D4BD3F80435127801920B4A0092C7
:107CB0007C220B49042006F0C5FFD8E73946204650
:107CC000FFF77CFFA56D04F1480000F015FDDEE72D
:107CD0000C3000200830002000100140C47804005F
:107CE000AA78040030B583B00446A0F1480510F826
:107CF000082C10F8063C9A4209D154F80C3C23B1E8
:107D000014F8062C216A2846984703B030BD00F8C5
:107D1000083C2846FFF761FF14F8083C8DF8003056
:107D200014F8063C8DF8013000230193694628467B
:107D30001BF07EFFE1E730B583B00446A0F14805B3
:107D400010F8073C13B910F8063C4BB954F80C3C3A
:107D500023B114F8062C216A2846984703B030BD99
:107D600000F8083C2846FFF738FF0023009314F87A
:107D7000083C8DF8003014F8063C8DF80130236A79
:107D80000193694628461BF053FFDFE710B582B028
:107D90000446483000F0BEFCA36B04F140012046CD
:107DA000984794F8403084F842308DF800308DF8D0
:107DB000013000230193694620461BF039FF02B0D1
:107DC00010BD000000B310B50446114BC362836BB5
:107DD000E3B1436B23B120461BF0F8FE28B110BD80
:107DE000C36B002BF7D10E20F9E7A064094AE264C7
:107DF0002065094B636504F14800C4F8D0000123F5
:107E0000E36500F0B9FCEAE70E2070470E20E6E7D4
:107E1000D4780400377D0200E57C020069DF7047FA
:107E20003A4B1B78002B70D000B587B0012804D0E6
:107E3000032863D007B05DF804FB0023019301A978
:107E4000012015F05BFB002842D10023039301229F
:107E5000114662F307118DF80C108DF80D20049374
:107E6000ADF814301023ADF81630019A03A9412063
:107E7000FFF7D4FF78BB01A815F09AFB70BB244B29
:107E80001B6803B198470123029302A90DF1020078
:107E900011F0DCF928BBBDF8020010F0EFFD0DF188
:107EA000010110F09DFFF8B90BF062FF9DF8011081
:107EB00000200CF027FAD0B904F0B4FAD8B9134B6B
:107EC00000221A70124B5B68002BB3D09847B1E7C1
:107ED00015F052FFB9E715F04FFFCCE715F04CFF56
:107EE000CDE715F049FFD6E715F046FFDCE7784609
:107EF00000F098FEE0E715F03FFFE0E715F0CCFB5F
:107F0000002897D015F038FF94E77047AE30002076
:107F1000B030002008B5064B01221A70054804F065
:107F2000EFFA04F0D1FA00B908BD15F025FFFBE720
:107F3000AE300020D02F002008B503781C2B00D0D5
:107F400008BD074B1B78002BFAD015F0E9FB18B9D8
:107F5000044804F0D9FAF3E715F00EFFF8E700BF84
:107F6000AE300020D02F002008B50749074816F092
:107F7000A5FB00B108BD0323002205494969054856
:107F800016F0B8FBF6E700BFCC30002038340020F4
:107F9000B03000200433002008B50378023B082BE2
:107FA0003FD8DFE803F01C05113E3E2C3E3E360074
:107FB0001E4B9B68002B34D0007A002831D01C4A1D
:107FC0000121117098472CE0184BDB684BB3184A1D
:107FD000127832B3164A00211170984721E0154BF0
:107FE0001B784BB9114B1B691BB1114A0021117051
:107FF0009847FFF7B9FF14E0FFF78CFF11E010225C
:108000000A4B99690C4816F0FFFB50B115F0B4FE0D
:1080100007E08168C0680AF07FFB18B9054B0122B0
:108020001A7008BD15F0A8FEF8E700BFB0300020B8
:10803000AC300020AD3000200433002070B586B095
:1080400004461F4A03AB07CA03C323F8022B120CD2
:108050001A701C4E35460FCC0FC594E8070085E812
:108060000700B36953B3184B009303AB174A184981
:10807000184816F0E1FA034610B1184606B070BD74
:10808000154818F02FF80146124816F001FB034678
:108090000028F2D1114818F09FF903460028ECD1CE
:1080A0000E4818F0CFF901460A4816F0F1FA0346D7
:1080B0000028E2D1FFF758FF0346DEE70723DCE79D
:1080C000DC780400B0300020997F0200CC30002022
:1080D0003834002004330020EC300020B43200207B
:1080E00008B5064B1B681BB906E0044B1B68984794
:1080F00013F09EFC0028F8DA08BD00BF7834002099
:1081000010B50C46144B1860144A012114481CF099
:1081100053FAA0B9610CE00341F26F7200238B4265
:1081200008BF824210D24FF47A7200231EF0F4FD91
:10813000014600220B481CF055FA38B910BD0A4A16
:108140004A2115F027FEE5E70521F2E7064A4B2113
:1081500015F020FEF2E700BF78340020E180020035
:108160002C7904007C340020E878040008B5134B17
:108170001B6873B14FF0A042D2F80435104909686A
:108180004B40C2F804350D4A1368013B136023B11C
:1081900008BD002015F0F0FDECE70A481CF044FA99
:1081A0004FF0A042D2F804350549096823EA0103DB
:1081B000054909680B43C2F80435E9E79C340020FF
:1081C000A0340020A4340020CC3400204FF0A04381
:1081D000D3F80425012383401A420CBF012000205C
:1081E000704739B1012303FA00F04FF0A043C3F800
:1081F0000C057047012303FA00F04FF0A043C3F8C9
:108200000805704721B14FF0A043C3F80C05704733
:108210004FF0A043C3F80805704700005AB338B5C3
:108220001346132900D838BD134A10605B00013B88
:10823000124A13604FF0A043D3F804351840104B96
:10824000186000254C0CC8034FF47A72002310F517
:10825000FA7044EB05011EF05FFD01462A4609480D
:108260001CF0C0F90028DED1034B1A684FF0A04380
:10827000C3F80C25D7E77047A03400209C340020B9
:10828000CC340020A434002008B504481CF0CCF9FC
:108290000021034B1868FFF7B5FF08BDA434002088
:1082A000A034002008B50D230BE04FF0A04103F5EA
:1082B000E072032041F8220001229A40C1F808250B
:1082C0000133102BF1D9054A012105481CF074F93E
:1082D00000B908BD15F050FDFBE700BF6D8102003D
:1082E00030790400F0B1104A1060002309E00F4A11
:1082F000D25C02F5E0724FF0A0410D4841F8220037
:108300000133032BF3D90B4B4FF00042C3F8042386
:108310000020C3F87C01084BC02283F806234022CA
:108320001A6070470E207047C4340020347904006E
:108330000C0003000060004000E100E010B50024E4
:10834000144BC3F87C4103E0D11A14E00134E4B2C9
:10835000032C1ED84FF0A043D3F810250E4B195D07
:1083600001238B409343F1D00C4B1B680C4AD2F88D
:108370000425991AE8D443F233339942E6D9084BDD
:10838000D3F80425054B1A60064B1B682046984716
:10839000DCE710BD0060004034790400C8340020E0
:1083A00000100140C4340020002800F082802DE934
:1083B000F04FD1B004463F4B1B6813F4804F03D0FD
:1083C0003D4B1B68032B0BDC3A4B1B6813F4804FAF
:1083D00003D0394B1B68032B2ADC51B0BDE8F08F6A
:1083E00000230F2B0FD8E25C34490D6810095900A7
:1083F0002E5C0FA800F8136002F00F020131AA5C96
:1084000042540133EDE70FAA00238DF85C3003F1ED
:10841000804303F58833D3F804350292284A019249
:10842000284A009242222849042006F00BFCCBE7A0
:10843000264BD3F804350D932068020202F47F0224
:1084400042EA0062010A01F47F4142EA010CA58878
:108450002A0292B2E688310289B2277A637A94F8C6
:108460000AE094F80B8094F80C9094F80DA094F81E
:108470000EB0E47B0B94CDF828B0CDF824A0CDF855
:108480002090CDF81C80CDF818E00593049741EAC0
:108490001621039142EA152202924CEA10600190E3
:1084A0000B4A00920D9B43220749042006F0CAFBA9
:1084B00093E770470C300020083000201030002077
:1084C00080790400947904006E7904000010014062
:1084D0009C79040008B5034B53F8203008469847B0
:1084E00008BD00BFDC79040008B5034B53F8203009
:1084F0000846984708BD00BFF079040008B58368B6
:1085000003B1984708BD006B003818BF01207047C1
:108510000369013B13F1030F03D843691BB9002022
:108520007047002070470120704708B502460121BE
:108530008C3009F0B8FA08BD08B50A4600230B6371
:10854000022102F18C0009F0AEFA08BD90F82C303F
:10855000022B01D10020704770B5054638301BF062
:10856000AEFC4B01420143EAD064131A64EB0102F2
:10857000940044EA93749E002246331841EB0202B1
:10858000D40044EA5374D900C80B40EA4440E10BDC
:108590002A6A0023994208BF904201D3012070BD8E
:1085A0000020FCE710B5044600230363036270302B
:1085B00004F098FA04F138001BF0ADFC10BD10B5C2
:1085C000044638301BF0A7FC00232362E3680BB19C
:1085D0002046984710BD00002DE9F843044600F1FD
:1085E000380528461BF097FC04F1200604F110031F
:1085F0000FCB86E80F00636A83EAE378A8EBE378A1
:10860000002B4CD0216A4A01CB0E521A63F10003B1
:10861000980040EA92709600761840F10007FB003F
:1086200043EA5673F20016461F4642460023304680
:1086300039461EF071FB06460F46A16A4A01CB0E71
:10864000521A63F10003980040EA92704FEA820CDC
:108650001CEB010240F10003D90041EA5271D00045
:10866000804689468F4208BF864201D3B046B9464C
:10867000B9F1000F08BFB8F57A7F14D22122002388
:10868000C4E91023012384F8383028461BF01AFC73
:1086900018B963680BB120469847BDE8F88378465F
:1086A00000F0C0FAAEE74FEAC93141EA58414FEA5B
:1086B000C830064E064A002380194FF0000646EBEC
:1086C00001011EF029FBC4E91001DBE720A107002E
:1086D00040420F0010B5044604F046FA236B4FF4F5
:1086E0007A7101FB030104F1700004F013FA2368AE
:1086F0000BB12046984710BD10B5044630B1224654
:10870000002104F18C0009F0CEF910BD784600F08C
:1087100089FAF4E710B5044630B12246032104F18A
:108720008C0009F0C0F910BD784600F07BFAF4E740
:1087300070B50446E0B1256A04F138001BF0BFFBB8
:108740004B01420143EAD064131A64EB0102940026
:1087500044EA93749E002246331841EB0202D10092
:1087600041EA5371D800C30B43EA4143E81A70BD94
:10877000784600F057FADEE738B5044690B1C4F801
:1087800080400A4BA367A464094BE36404F13800FA
:108790001BF0D6FB0546074904F18C0009F06DF982
:1087A000284638BD784600F03DFAE8E739850200F2
:1087B0002B850200287A040072DF704773DF704750
:1087C00074DF70472DE9F047A2B006460F46904689
:1087D000314A02F1040900255560D5602F4803781D
:1087E000C3EB431C2E4C644414602E4961449160D9
:1087F0001F2191809181013303F0010303704FF039
:108800003C0A5246294613A81EF0E8FB06238DF8C1
:108810004F30ADF8486001238DF84A30ADF85C3038
:1088200012AA1892ADF83C60ADF8408011970DEB9C
:108830000A021D928DF878305246294668461EF08D
:10884000CDFB02238DF800304A46214613A814F0D0
:1088500047FD90B9104B03F10C029968684614F07B
:108860003FFD68B9104A0C491048FFF7A5FF0828DA
:1088700009D070B922B0BDE8F08715F07DFAE9E7BC
:1088800015F07AFAEEE7002203490848FFF794FF53
:10889000EFE715F071FAEDE714350020D034002031
:1088A000D434002024350020E02F0020DC2F0020CD
:1088B000B0F5202F0AD2074BA3FB0023DB0808B139
:1088C00003B90123044A9381916070474FF6FF7307
:1088D000F5E700BFCDCCCCCCE02F002008B50121BE
:1088E000054B1878FFF76AFF18B9002004F090FDD7
:1088F00008BD15F041FAF8E7DC2F002008B5044B5D
:108900001878FFF75DFF00B908BD15F035FAFBE7F1
:10891000DC2F002076DF70477ADF70477CDF7047FE
:1089200069DF704708B515F027FA08BD08B503F0F0
:10893000EFFD08BD00B583B0037823B1012B0BD048
:1089400003B05DF804FB3B214088FFF7E3FF0028FC
:10895000F6D015F011FAF3E7094B1B6813F4804FBA
:10896000EED0084B1B68032BEADD074BD3F8043528
:10897000064A009268220649042006F063F9DFE700
:108980000C3000200830002000100140887A0400DC
:108990006E7A040000B585B014F07EFE18BB00238B
:1089A000039303A9012014F0A9FDF8B90023009353
:1089B0000122114662F307118DF800108DF8012095
:1089C0000193ADF808301023ADF80A30039A6946D8
:1089D0004120FFF7A5FF60B903A814F0E9FD58B9DD
:1089E00005B05DF804FB15F0C7F9D8E715F0C4F938
:1089F000DCE715F0C1F9EFE715F0BEF9F0E700008C
:108A000000B585B09DF80C30012262F3030362F3D8
:108A100007138DF80C3010220F4903A8FFF77EFFD3
:108A200098B97823ADF80430C823ADF80630002398
:108A3000ADF808304FF4C873ADF80A3001A8FFF75D
:108A40006BFF28B905B05DF804FB15F095F9E8E770
:108A500015F092F9F6E700BFB47A040000B58BB0C8
:108A60007823ADF80430C823ADF806300023ADF804
:108A700008304FF4C872ADF80A200693079301AA94
:108A8000039240F6CD4204924FF4803205920322C5
:108A90008DF81820ADF81A308DF81C30064B08936D
:108AA000064B099303A814F0DDFF10B90BB05DF875
:108AB00004FB15F061F9F9E7358902002589020008
:108AC0000620704700B587B044F20103984262D097
:108AD0001BD8012836D041F20103984276D1474B8A
:108AE0001B6813F4804F36D0454B1B68002B32DDDA
:108AF000444BD3F8043502920191434A0092632219
:108B00004249012006F09EF825E044F20203984213
:108B10005CD13A4B1B6813F4804F1CD0384B1B6858
:108B2000002B18DD374BD3F80435108803905268BA
:108B300002920191364A009269223449012006F0DE
:108B400081F808E02D4B1B6813F4804F03D02C4BA9
:108B50001B68002B12DC4FF0A0434FF4F032C3F837
:108B60001825C3F80C25EFF3108372B64DF6AD6CE3
:108B7000284B1B78002B3ED030BFF9E7214BD3F8B0
:108B8000043502920191244A009260221F4901207B
:108B900006F058F8DFE7194B1B6813F4804FDAD062
:108BA000174B1B68002BD6DD164BD3F80435106825
:108BB000049050680390029192680192174A0092C3
:108BC00073221249012006F03DF8C4E70B4B1B68E5
:108BD00013F4804FBFD00A4B1B68002BBBDD094B41
:108BE000D3F8043501910E4A00927B2207490120F7
:108BF00006F028F8AFE707B05DF804FB0C30002062
:108C000008300020001001402C7B0400FE7A040094
:108C1000507B0400F82F0020107B0400707B0400C0
:108C2000947B040000B583B001460023ADF800300A
:108C3000044B01936A4644F20200FFF743FF03B07E
:108C40005DF804FB907B040010B40346044C0068FC
:108C500059689A68DB680FC45DF8044B704700BF21
:108C6000643500200D4B0E4A92E8030083E80300B0
:108C700003F108020B4903C982E8030093F90620B7
:108C800002F00F0242F040029A7193F9082002F0BC
:108C90003F0242F080021A72704700BF6435002024
:108CA00060000010A40000100048704764350020E8
:108CB00000231F2B09D8074901EBC3000022428083
:108CC000426001F833200133F3E7034B00221A60BE
:108CD000704700BF743500207436002030B405465C
:108CE0000F4B1B6800240AE01F230E4A12F83300C2
:108CF000A0B102EBC3025288AA4207D001341F2C54
:108D00000BD85A1E002BEFD01346EEE7054A02EBB4
:108D1000C30252688A42F1D100E0002030BC7047A3
:108D2000743600207435002030B40A4A13680A4CA7
:108D300004EBC30568806960012104F833100B441B
:108D40001360202B01D030BC7047134600221A60FC
:108D5000F9E700BF7436002074350020F0B41446E3
:108D60001D46002300E00133072B0ED81A010849E5
:108D70008A5A8242F7D101EB0312D2E90267AF426D
:108D800008BFA642EFD1012000E00020F0BC7047F0
:108D90007836002030B4C1698269C3880D0A0C0698
:108DA000C2F30C01994216D25B1A1344A3F5005387
:108DB000E41845F10005094A1368591C116003F0D5
:108DC0000703808A064A190102EB03135052C3E9D4
:108DD000024530BC70475B1A1344E9E7F8360020BF
:108DE00078360020C37D002B42D0C3780A7802F089
:108DF000800203F07F0313430B7002780B7803F0BB
:108E00007F0343EAC2130B700378002B41D030B4C8
:108E10008378082B14BF002201224B7803F07F03D4
:108E200043EAC2134B70C58803F08003C5F3861470
:108E300023434B708A7802F0030242EA8502D2B2E1
:108E40008A70057A02F0FC02C5F3C10422438A70DD
:108E5000CB7803F01F0343EA4513DBB2CB70427AB1
:108E600003F0E00302F01F021343CB7030BC7047E5
:108E7000C3780A7802F0BF029B0103F0400313435A
:108E80000B70027903F0C00302F03F0213430B7032
:108E9000B3E770470023032B31D810B402E001334D
:108EA000032B28D8C3EBC302164C04EB021292F832
:108EB0004820012AF3D1C3EBC30204EB0212948AC7
:108EC000C2899442EBD1C3EBC3020E4C04EB0212F5
:108ED000D2888A42E3D1C3EBC30204EB0212B2F898
:108EE000582012B1848AA242D9D1C3EBC3030548EA
:108EF00000EB031000E000205DF8044B70470020F9
:108F0000704700BF2C370020002300E00133032B03
:108F100016D8C3EBC3020B4901EB021292F84820AA
:108F2000022AF3D1C3EBC30201EB0212918A828AB7
:108F30009142EBD1C3EBC303024800EB031070472F
:108F4000002070472C37002008B904207047082003
:108F5000704700000021164B1B688B4226D9002366
:108F6000144A02EBC10252689A421DD910B4114A48
:108F700052F8312002EBC30412F8332082420DD0A4
:108F800001330C4A02EBC10252689A42EFD8013118
:108F9000074B1B688B4205D90023F2E760685DF838
:108FA000044B70470020FAE70131D4E700207047F6
:108FB000FC3600200037002070B58CB006460D4608
:108FC00014462C22002101A81EF008F80F238DF86A
:108FD0000430ADF808604FF0000365F300038DF82E
:108FE0000A308DF80B4001A801F08EFA0CB070BD6C
:108FF00030B58DB005460C462C22002101A81DF08D
:10900000EDFF10238DF8043002958DF80C4001A877
:1090100001F07AFA0DB030BD00B58DB010B913F182
:10902000020F06D1074B186804F01AFC0DB05DF86A
:1090300004FB01218DF804100293039201A801F0B2
:1090400063FAEFE710370020F8B5069C002960D0DE
:109050001E460F4615685168D2F808C0D368E5600F
:109060002161C4F814C0A36115695169E5612162E9
:10907000002363700278D20922705AB30423BB42E2
:1090800049D8E17D41B3037803F07F03E370002307
:10909000A3709AB143789B0103F4FE53827843EAAC
:1090A0009203E3808378DB0003F01803C27843EA7D
:1090B00052132372C37803F01F03637200236362A9
:1090C0003378032B21D83278144B53F82230E362E3
:1090D0000020F8BD0123D2E70178C1F38011E170CF
:1090E000017801F03F01217142B190F90130002B6C
:1090F00002DB0423A370CCE70823FBE70421A17063
:109100000B44BB42C5D90920E3E77846FFF78AFD47
:10911000D9E70920DDE70920DBE700BF347D040043
:1091200070B50C461D4603789BB104263244A260FC
:1091300000F10C032360836A6360C36AE360002369
:109140002374204604F0FEFE10B963691E442E60AD
:1091500070BD0126EAE72DE9F0418EB00D461646B6
:109160001C46804600282DD0002D2FD0002C31D059
:10917000636A0233059304F10C00E378002B2DD0D1
:109180000121A27801AF3B46082A14BF0022012228
:1091900004F0ABFC0697CDF81C80B2B2ADF82020ED
:1091A0000B9515440C95A3788DF83430237B022B56
:1091B00016D00023ADF8283005A804F08EFC0EB0C0
:1091C000BDE8F0817846FFF72DFDCDE77846FFF743
:1091D00029FDCBE77846FFF725FDC9E70221D0E757
:1091E00023692BB1236909931023ADF82830E3E7F5
:1091F0007846FFF717FDF5E72DE9F04188B0044602
:109200000D46C37D002B3CD0082605FB06F8637A8B
:10921000AB4238D0257201AB324602A92046FFF797
:109220007FFF074648BB4DB994F8533033B9A36963
:10923000C3F30C03E380012384F85330E37D7BB94F
:1092400094F8523063B91DBBE06EB4F84A10A278AE
:1092500023468A1A0146FFF77EFF012384F8523025
:1092600007992046FFF7BEFDE16E32464144019862
:109270001DF08BFE02A804F08BFE384608B0BDE856
:10928000F0810C26C1E7B4F84A60A6EB0806C1E7F6
:109290007846FFF7C7FCD7E770B505460E4609B11B
:1092A00000230B6095F85040002104E0631C85F812
:1092B00050300134E4B26B7AA34210D3EA6C01233C
:1092C000A3401A42F5D121462846FFF795FF0146F3
:1092D00028B9002EEAD0336801333360E6E7084648
:1092E00070BDF0B589B004460E46154683789A18CD
:1092F000C37D63B10B239A4221D801AB02A920465A
:10930000FFF70EFF074620B1384609B0F0BD0F2326
:10931000F1E707992046FFF765FDE37D43B12A4653
:10932000314601981DF031FE02A804F031FEEBE752
:1093300023462A4601993046FFF70DFFF4E7092737
:10934000E2E7000010B5044690F84830012B0CD13C
:1093500003F00AFC237B012B0BD0094BD968014495
:1093600004F1300003F0D6FB10BD7846FFF75AFC3D
:10937000EEE7A17D024BDA681B6903FB0121EEE7F2
:109380001437002030B583B0002403E02846FFF7EF
:10939000D9FF0134032C18D8C4EBC4030C4A02EBE8
:1093A000031393F84830012BF3D100230193C4EB4E
:1093B000C40502EB051501A92846FFF76DFF042837
:1093C000E4D0019B002BE4D0E0E703B030BD00BF48
:1093D0002C37002038B5044690F84830022B09D1CC
:1093E000064B1D6803F0C0FB411904F1300003F087
:1093F00091FB38BD7846FFF715FCF1E714370020E4
:1094000038B5044690F84830022B10D10A4B5D7DE8
:109410005A689B6803FB052503F0A6FB411904F17C
:10942000500003F077FB012384F8683038BD78469C
:10943000FFF7F8FBEAE700BF1437002038B5044611
:109440000B460978C1700021416299680B2903D845
:10945000197B49B3012100E0012121700020A07097
:1094600029B199680731C908013961722072012157
:10947000E17504F10C055969186985E80300D9897B
:10948000A18299692162197FA1751B6AE362A262B8
:1094900020461CF03FFD30B1237B012B06D0E36A50
:1094A00043F02003E36238BD0021D6E72023E362C6
:1094B000F9E710B50446808A02F072FE01281CD13B
:1094C000237BE3B194F91620002A1ADBE27D4AB12E
:1094D000022B18D094F90330002B16DBA378B3B914
:1094E00000200BE0E2780AB9012B12D1237893B95E
:1094F000A378042B11D1002000E0102010BD102013
:10950000FCE70720FAE71020F8E70720F6E7072036
:10951000F4E70720F2E70020F0E70720EEE738B590
:10952000044603784BB1C388C2698169808A06F01A
:10953000BDFD054645B9284638BDC2698169808AA6
:1095400006F0AEFD0546F5E7E169002201F00101F4
:10955000A08AFFF731FDEEE72DE9F04780460E4681
:1095600017464B1EDBB2012B0FD8B7F5C07F10D8C2
:109570000024032C1AD8C4EBC403314A02EB0313B2
:1095800093F848304BB10134F3E77846FFF74AFBD4
:10959000EBE77846FFF746FBEAE7C4EBC40502EBCE
:1095A0000515384609F09FF8E86600E000255DB330
:1095B000EB6E002B42D043462C4608F1300ED3F818
:1095C00000C058689968DA68C4F800C06060A1609B
:1095D000E260103310347345F1D10023EB64A5F839
:1095E0004A70012E13D06FF00103AB62002385F89F
:1095F0006830144BAB652D66134BAB632D640120B3
:1096000002F0A0FA85F848602846BDE8F0870F4BC5
:109610001B7D85F85130002385F8523085F8533092
:1096200085F85030D8F828206A65A5F858306FF0D2
:109630000103AB62064BAB632D64E0E71D46E3E735
:109640002C37002097A00200A599020014370020B3
:10965000F199020000B585B000228DF80F20A0B16D
:109660000B46024602320A600DF10F01184604F063
:1096700038FA9DF80F3043B10C4B1B6813F0040F00
:1096800003D00B4B1B68032B04DC9DF80F0005B0C7
:109690005DF804FB074BD3F80435074A009240F20B
:1096A00015420649042005F0CDFAEEE70C30002003
:1096B0000830002000100140EC7B0400E07B040037
:1096C0002DE9F0438FB004460E4615461F46D0F8EC
:1096D000188003784BB1C288C8F30C03934241D27F
:1096E000D21A4244A2F50052A26104F10C00E378C0
:1096F000002B3AD00121A2780DF128094B46082A07
:1097000014BF0022012204F0F0F9C4F81880CDF84B
:1097100008900396A378EA1A92B2ADF8102032446A
:10972000089207978DF824300023ADF81830E378BD
:109730007BB3237B022B1AD02546002345F8243F18
:109740002A462179206A10F0D7F8606AA8B101A9E9
:10975000FFF780FF002840D12A462179206A10F0C7
:10976000CBF8F2E7D21A4244BEE70221C3E7102346
:10977000ADF8183023690593DEE7237B022B30D147
:1097800004F10C01E08910F069F90028D1D105201D
:1097900024E0237B012B01D005201FE0E389ADF8F5
:1097A0000030A38AADF802300025012D13D82146E0
:1097B000002341F8243F0EAB03EB450333F8380C8C
:1097C00010F0B7F801A9606AFFF744FF08B9013546
:1097D000EBE7002002E0052000E000200FB0BDE82C
:1097E000F0830520FAE7000070B5F0B00E4614468D
:1097F0001D4610AB0A4601462046FFF761FF50B1F7
:10980000214B1B6813F0040F03D0204B1B68052B62
:109810002DDC70B070BD2046FFF781FE0028F8D126
:1098200003AB01228DF80C20A28AADF80E20002295
:1098300004928DF8142010AA0692A178711AADF83E
:109840001C1008AA93E8030082E803000AAB216910
:10985000E06883E80300A37D8DF83830236A0C9319
:10986000636A0D930F9505A800F04EFED1E7084BF3
:10987000D3F80435074A009240F2017206490620E7
:1098800005F0E0F9C5E700BF0C30002008300020EB
:1098900000100140007C0400E07B040010B5044689
:1098A000C06E08F024FF04F1300003F01BF994F8B7
:1098B0004830022B0AD07022002120461DF08EFB7A
:1098C000002084F8480002F03DF910BD04F150007A
:1098D00003F008F9EFE710B58CB0044690F8483073
:1098E000012B0FD101238DF80430636D029303F037
:1098F0003BF9039001A800F007FE2046FFF7CEFFDA
:109900000CB010BD7846FFF78DF9EBE730B585B0A8
:109910000D460446D0B1E18894F84830022B19D0A6
:1099200094F84830022B1ED02946606DFFF760FB8B
:109930002046FFF7B3FF164B1B6813F0040F03D04C
:10994000144B1B68032B12DC05B030BD7846FFF7C3
:1099500069F9E0E7637813F0020FE1D00022A08AF2
:109960001CF032FBDCE72046FFF714FADCE70A4B79
:10997000D3F8043594F8482002950192074A0092E2
:1099800040F2F3120649042005F05CF9DCE700BF61
:109990000C30002008300020001001402C7C040016
:1099A000E07B040008B508460021FFF7AFFF08BDC3
:1099B00008B5037B012B02D0FFF78DFF08BD012105
:1099C000FFF7A4FFFAE7000008B590F8513053B153
:1099D000013B80F85130002380F85030034B186869
:1099E00003F03EFF08BDFFF7E3FFFBE71037002061
:1099F00010B50C4691F84830012B03D12046FFF7F3
:109A0000E3FF10BD7846FFF70DF9F7E7062976D199
:109A1000F0B585B015460678B20102F4FE524178E1
:109A20008478C3781B0443EA0463047943EA04237B
:109A300044791C4376B242EA91012846FFF72AFA9C
:109A40000746E0B1002E2FDBC289A98A8A422BD0BB
:109A50002B4B1B6813F0040F3ED02A4B1B68012BC5
:109A60003ADD294BD3F8043502910192274A00923E
:109A700040F27B622649022005F0E4F82CE0204BFE
:109A80001B6813F0040F27D01E4B1B68012B23DD2E
:109A90001D4BD3F804351F4A009240F277621C49EF
:109AA000022005F0CFF817E0002E17DBFD6C2543F0
:109AB000FD64BCB13B78D3B17B7A5A1C012393403F
:109AC000013B9D4217D0002187F850103846FFF720
:109AD000E3FB3846FFF736FC05B0F0BDAB8AA7F8CC
:109AE0005830E3E703213846FFF710FFF4E77846E4
:109AF000FFF798F8E0E73846FFF7EDFEECE7704730
:109B00000C3000200830002000100140807C040050
:109B1000E07B0400507C04002DE9F0418AB0074648
:109B20000E4614461D461046FFF7F9FC50B994F84E
:109B30000380B8F1000F08D12B4622463146384643
:109B4000FFF764FF0AB0BDE8F0814046FFF702FA74
:109B500002460028F6D08DF80480236A0793A38A72
:109B6000ADF8123005AB2169E06883E80300A37DFE
:109B70008DF820300297039623788DF81030E36A31
:109B80000993294601A89047DCE710B5547814F0F2
:109B9000010F03D0D47D14B1FFF7BEFF10BDFFF756
:109BA00023FEFBE7F8B505460E4614461F465378DC
:109BB00013F0020F06D13B462246711E681CFFF7C8
:109BC000E4FFF8BD0123C9B21CF018F9F3E7000067
:109BD000F0B5C7B00F46164682783244C37D2BB12C
:109BE0004FF4807393427CD3002303E04FF4C0739F
:109BF000F8E70133032B1AD8C3EBC3043B4D05EB45
:109C0000041494F848100129F3D1C3EBC30105EB08
:109C100001118C8A818A8C42EBD1C3EBC30105EB25
:109C20000111CC89C1898C42E3D1082552E0012180
:109C3000FFF792FC0446002855D032463946C06EE4
:109C40001DF0A3F90023459345A92046FFF724FB07
:109C5000054608B1042840D1459B0BBB244B1B682B
:109C600013F0040F35D0234B1B68032B31DDB4F800
:109C70004A70802F28BF80270023BB4214D2E26E97
:109C8000D25C1D490D68100959002E5C04A800F82B
:109C9000136002F00F020131AA5C42540133ECE779
:109CA0002046FFF74FFBD9E704AA002302F817303C
:109CB00003F1804303F58833D3F8043502920F4A49
:109CC00001920F4A00924FF4AC620E49042004F056
:109CD000B9FF0025284647B0F0BD2046FFF7DEFD5E
:109CE000F8E70925F6E70425F4E700BF2C37002044
:109CF0000C3000200830002010300020C47C04000C
:109D000094790400E07B040070B504460D461646C5
:109D1000FFF7CFFB30B923782BB1324629462046D6
:109D2000FFF756FF70BD324629462046FFF7D9FAA5
:109D3000F8E7000038B504460D46CB695B7803713F
:109D4000CB691B7883F00103C370CB6943628B8AB4
:109D50000B2B07D8CB7A002B40D10B7B012B02D0E9
:109D6000002300E001232370002B3CD0287B022835
:109D700036D0FFF7E9F8A070AB8A03440B331E4AD4
:109D800082FB03235B10013B6372002323720023D9
:109D9000E37504F10C0395E8030083E80300AB6965
:109DA00023622B89A382AB7AA3752B6AA362DF237C
:109DB000E36228460FF0C6FF20B12B78012B15D0A7
:109DC000FF23E36220461CF0A5F830B1237B012B72
:109DD0000ED0E36A43F02003E36238BD0123C2E7FB
:109DE000064B987DC5E70423A370D0E72023E8E75E
:109DF0002023E362F1E700BFABAAAA2A14370020B0
:109E000010B54FF4E072002113481DF0E7F806F09A
:109E10000BFB0024114B1C608022214610481DF0D2
:109E2000DDF8104B104A1A60104A5A604CF250325A
:109E30009A600F49D9601A6104221A759C7508222C
:109E40005A750C4803F0ECFC0B4B18600B4B1C6074
:109E50000B4806F0E1FB10BD2C370020F83600203F
:109E6000783600201437002080969800F0490200D0
:109E700020A1070089A0020010370020FC36002036
:109E80001990020008B506F003F908BD98B110B5A5
:109E90008CB00446036983B1C36983B1836983B11C
:109EA00001466846FFF746FFA28A21696846FFF728
:109EB0002BFF0CB010BD0E2070470E20F9E70E20CE
:109EC000F7E70E20F5E7000058B310B590B00A464A
:109ED000044643683BB383693BB3014604A8FFF7DC
:109EE000ADFA134B1B6813F0040F03D0114B1B6822
:109EF000062B06DCA268616804A8FFF705FF10B016
:109F000010BD0D4BD3F804352278A169029101925E
:109F10000A4A009240F603020949072004F092FE23
:109F2000E8E70E2070470E20E9E70E20E7E700BFC4
:109F30000C3000200830002000100140D47C0400C8
:109F4000E07B0400037B012B01D00020704730B57B
:109F500091B004460D46334B1B6813F0040F03D039
:109F6000314B1B68032B41DC04A900230593CDF87A
:109F70001730E288C2F3861092008DF811202A0E65
:109F80008DF812202A0C8DF813202A0A8DF814203F
:109F90008DF815506278022A0CBF80221A4642EAD8
:109FA00000028DF810204FF0060209924FF00102D6
:109FB0008DF82C20A28AADF82E200C938DF81C3041
:109FC0000891226A0D928DF82830E36A0F9319D018
:109FD000E389ADF82A30A37DF3B98DF838306FF0FE
:109FE000010107A8FFF770FF11B030BD0F4BD3F888
:109FF00004350F4A009240F263220E49042004F017
:10A0000021FEB1E70DF10E0103A80FF043FDBDF8ED
:10A010000C30ADF82A30DEE7074B5B7D8DF8383029
:10A02000DDE700BF0C3000200830002000100140A8
:10A03000007D0400E07B04001437002090F84830D5
:10A04000022B00D0704710B5044690F86830022B00
:10A0500000D010BDC16CFFF775FF0028F9D10023B7
:10A0600084F86830F5E7000010B5002407E0C4EB81
:10A07000C402130103481844FFF7E0FF0134032C26
:10A08000F5D910BD2C37002008B5FFF77BF9FFF795
:10A09000EBFF012008BD10B50C4691F84830022BAB
:10A0A00006D1022384F868302046FFF7C7FF10BDB1
:10A0B0007846FEF7B7FDF4E7F0B583B00446C5690E
:10A0C0008269C3882F0A2E06C2F30C05AB4232D92F
:10A0D0005B1B1344A3F50053F61847F10007324603
:10A0E0003B46A08AFEF73AFE002840F0A4802046B6
:10A0F000FEF70AFF054648B3D0F81CC08269C38842
:10A100004FEA1C214FEA0C60C2F30C0C9C4515D29F
:10A11000A3EB0C031344A3F50053C01841F1000155
:10A12000B94208BFB0420DD38F4208BF864239D32F
:10A13000284603B0F0BD5B1B1344CDE7A3EB0C0333
:10A140001344EAE705212846FFF7E0FBE388E269CC
:10A15000A169A08A06F068F830BB32463B46A08A67
:10A160001BF056FF002839D1627A531CE17D00298B
:10A1700044D0082202FB03F2002941D04FF480733F
:10A18000934240D302212046FFF7E6F90546002816
:10A19000CED100212046FFF7D5FE02210020FEF798
:10A1A00027FFC5E70025C3E7E388E269A169A08A24
:10A1B00006F0B4F860B1237863B1617A4B1C0121D9
:10A1C000994001392046FFF7BDFE2046FFF7A7F969
:10A1D0000025ADE77846FEF725FDEEE723784BB185
:10A1E000617A4B1C0121994001392046FFF7AAFEF4
:10A1F00000259DE77846FEF715FDF1E70C22B9E74B
:10A200004FF4C073BCE70D4B1B6813F0040F03D071
:10A210000B4B1B68002B01DC002589E7094BD3F8A9
:10A2200004350192084A009240F27F32074901202A
:10A2300004F008FDF0E700257AE700BF0C300020AD
:10A240000830002000100140107D0400E07B040075
:10A250002DE9F04782B007460E461546984610464F
:10A26000FFF72AFF00284ED004464D4B1B6813F021
:10A27000040F03D04B4B1B68032B47DC2046FFF732
:10A28000A9F8237B012B4FD0E16C2B7A01229A4055
:10A29000114238D10A43E264A6F1040A2B7AEA7D1E
:10A2A000002A49D04FF0080C0CFB03FC617A8B426A
:10A2B00045D0002A48D00823534547D1A269AB694D
:10A2C0009A420BD204F10C0E05F10C09B9E80F000B
:10A2D000AEE80F0099E803008EE80300E06E5246F6
:10A2E000391D60441CF051FE6B7813F0020F32D11F
:10A2F000E66C2378002B35D0637A5A1C01239340F7
:10A30000013B9E4232D002B0BDE8F087264BD3F825
:10A3100004352A7A0192254A009240F2A332244958
:10A32000042004F08FFCA9E794F86830002BABD12F
:10A330002046FFF765F8A7E74FF00C0CB4E70CEBED
:10A340000A03A4F84A30B9E70C23B5E704212046F4
:10A35000FFF7DCFAD7E701232A46F1B238461BF0B3
:10A360004DFDC5E77846FEF75DFCC5E7E16C20468C
:10A37000FFF7E8FD6B7813F0020F0AD1434622463F
:10A38000B4F84A10E06EFFF700FC2046FFF786FAAB
:10A39000B9E70122E988A88A1BF016FEEEE700BFA4
:10A3A0000C3000200830002000100140247D040003
:10A3B000E07B04002DE9F04190B0002856D00F4614
:10A3C00014461E468046002A52D004AB0093334602
:10A3D000FEF73AFE054618B1284610B0BDE8F081F8
:10A3E00004A8FFF766F805460028F5D104A81BF07D
:10A3F00091FD28B19DF8113043F002038DF8113022
:10A4000000230293039302A960880FF027FB28B171
:10A410009DF8113043F001038DF811302269E16895
:10A42000208905F0B9FE38B19DF8113003F0FE0324
:10A430008DF81130002BCFD09DF81130002BCBD0F0
:10A4400013F0010F01D0039B08939DF8103033B136
:10A45000334604AA39464046FFF7FAFEBCE73346C6
:10A4600004AA39464046FFF79DFBB5E70E25B3E742
:10A470000E25B1E720B3F8B50E460546164B1F680A
:10A48000012F1FD80024B4420FD205EBC4035B6830
:10A49000D3B115F8340015F93430002B16DBB8B100
:10A4A000FEF758FDB0B90134EDE70C4B43F83750D7
:10A4B00003EBC7035E600137074B1F60002002E01B
:10A4C0000E2070470420F8BD0E20FCE70B20FAE7B1
:10A4D0000F20F8E70F20F6E7FC36002000370020B9
:10A4E000084B196861B110B504E0064804F014FB8C
:10A4F000214624B10C680B79002BF9D0F5E710BD8B
:10A50000704700BFF038002038B5054630B1104B19
:10A510001C68C4B10F4B01221A7004E07846FEF7A4
:10A5200081FBF4E724683CB12379002BFAD154F87D
:10A53000043C28469847F5E7064B1B78022B03D0CE
:10A54000044B00221A7038BDFFF7CAFFF8E700BFBE
:10A55000F0380020EC38002010B5044630B100235C
:10A560002372211D034804F0ACFA10BD7846FEF7B3
:10A5700059FBF4E7F038002010B5044658B10A4BF7
:10A580001B78013BDBB2012B09D8074B02221A7062
:10A590000123237210BD7846FEF744FBEFE7211D2F
:10A5A000024804F0B9FAF5E7EC380020F038002052
:10A5B0000A8883689B5A07339BB223F00303134432
:10A5C0009BB20288043A934200D900230B80704763
:10A5D00010B582B004468368C91AADF806100DF1B3
:10A5E0000601FFF7E5FFBDF80630A068184402B089
:10A5F00010BD0088043880B2704743888268D01844
:10A60000D152012383707047826800239370438086
:10A6100083807047073189B221F0030189B24288F3
:10A6200083889A4204D29B1A99421EDC002070470C
:10A6300010B59A420FD90488A41AA14217D98B42A7
:10A6400017D3032C03D98368134404229A70002380
:10A650004380184604E0826813449B780BB10420C1
:10A6600010BDFFF7D1FF0020FAE70420704700205B
:10A67000F6E70420F4E738B504460D46836882887F
:10A6800013448B4202D07846FEF7CCFA0023AB701D
:10A69000211D2046FFF78CFFA288A36813449B78F6
:10A6A000042B00D038BD0023A380FBE710B50C4677
:10A6B0008368428813448B4202D07846FEF7B2FA90
:10A6C0000023A37010BD70B5054614460E46002940
:10A6D00044D0002D46D0B6F1005F08D94FF080532A
:10A6E000D3F80C3103F50023B6EB832F0ED3B6F568
:10A6F000000F08D94FF08053D3F80C3103F5005305
:10A70000B6EB832F02D37846FEF78CFA631E3344F0
:10A71000B3F1005F08D94FF08052D2F80C2102F556
:10A720000022B3EB822F0ED3B3F5000F08D94FF000
:10A730008052D2F80C2102F50052B3EB822F02D3E3
:10A740007846FEF76FFA042C10D92C8000236B801A
:10A75000AB80AE60043C3480B37070BD7846FEF7C9
:10A7600061FAB6E77846FEF75DFAB4E77846FEF799
:10A7700059FAEAE738B50446A0B16288A3681344E1
:10A780009B78012B12D0EFF3108572B6A388A168D5
:10A7900019448B78032B0DD02046FFF735FF05B900
:10A7A00062B638BD7846FEF73DFAE6E77846FEF732
:10A7B00039FAE8E72046FFF70BFFA368C31A638066
:10A7C00000238370EBE72DE9F0410E461446054661
:10A7D000D0B1EEB16A88AB6813449B78012B1BD0D3
:10A7E00024B32846FFF705FFA04221D3EFF31088DA
:10A7F00072B621462846FFF70DFF074680B1B8F133
:10A80000000F16D162B614E07846FEF70BFAE0E7C7
:10A810007846FEF707FADDE77846FEF703FADFE74A
:10A8200021462846FFF7E9FE3060E8E7092700E007
:10A8300009273846BDE8F081F8B50C4615460646AE
:10A84000E0B1FCB1A378012B20D12388AB4221D306
:10A8500025B3EFF3108772B625800223A370F11899
:10A860003046FFF7A5FE7388B288934203D0B268E2
:10A87000134400229A7007B962B6F8BD7846FEF715
:10A88000D1F9DEE77846FEF7CDF9DBE77846FEF74B
:10A89000C9F9DAE77846FEF7C5F9D9E77846FEF751
:10A8A000C1F9D6E770B50C46054690B1ACB1EFF3EF
:10A8B000108672B6AA88AB6813449A78042A10D01E
:10A8C0009A78022A15D0032A18D0052006B962B654
:10A8D00070BD7846FEF7A6F9E8E77846FEF7A2F9DC
:10A8E000E5E7291D2846FFF763FEAA88AB681344F5
:10A8F000E6E703229A7023600020E7E77846FEF738
:10A9000091F90020E2E738B5044680B1EFF31085F5
:10A9100072B6A088A16801448B78042B0BD088788C
:10A92000022814BF0020012005B962B638BD784660
:10A93000FEF778F9EAE72046FFF74AFE0146EEE720
:10A9400038B5054678B1EFF3108472B6A888A968C7
:10A9500001448878C31EDBB2012B08D82846FFF7D4
:10A9600037FE0146F5E77846FEF75CF9EBE702288B
:10A9700014BF0020012004B962B638BD70B50C4682
:10A98000064678B194B1EFF3108572B6A378012B27
:10A9900010D0032B13D121463046FFF76CFE05B9CA
:10A9A00062B670BD7846FEF73DF9EBE77846FEF7F4
:10A9B00039F9E8E721463046FFF778FEEFE77846B9
:10A9C000FEF730F9EBE710B5EFF3108472B6838829
:10A9D000816819448B78042B06D08878B0FA80F00F
:10A9E000400904B962B610BDFFF7F2FD0146F4E775
:10A9F00008B5064B986800221A605A609A60DA60BF
:10AA00001A615A619A6105F0E5F808BDF438002032
:10AA100000B585B00A4BDB6802228DF80020019357
:10AA20004FF480530293074A6946012001F0CEFAA1
:10AA300018B9012005B05DF804FB0020FAE700BF5B
:10AA4000F43800201039002000B585B00A4B1B688F
:10AA500002228DF8002001934FF480530293074A9D
:10AA60006946012001F0B2FA18B9012005B05DF87D
:10AA700004FB0020FAE700BF143900201039002041
:10AA8000164BDA68137951795B1A03F57F2303F6C5
:10AA9000FF7302EB03339A4205D002F580520F4B4D
:10AAA000DA600320704700B585B00D4B1B680120AC
:10AAB0008DF8000001930B4B0393042302930A4A81
:10AAC000694601F083FA18B1002005B05DF804FB77
:10AAD000024B01221A760220F7E700BFF43800206B
:10AAE00014390020183900201039002000B585B035
:10AAF0000C4BDA680C4B1B68043301208DF8000006
:10AB00000192039340F6FC730293084A694601F0F0
:10AB10005DFA28B90120034B187605B05DF804FBF7
:10AB20000020FAE7F4380020143900201039002002
:10AB300000B585B00A4B1B6801208DF80000019319
:10AB4000084B039304230293074A694601F03EFA37
:10AB500018B9012005B05DF804FB0020FAE700BF3A
:10AB600014390020003900201039002010B584B0BD
:10AB7000104BDA681478104B1B68043301208DF8F1
:10AB800000000193039202940C4A694601F01EFAF8
:10AB900070B9094B1B6804F0FC041C440434054BD9
:10ABA0005C61D9680A780A441A61012004B010BDBA
:10ABB0000020FBE7F4380020143900201039002071
:10ABC00008B50023092B09D8064A52F823208242EF
:10ABD00001D00133F6E7044A536002E07846FEF7FD
:10ABE00021F808BDC07D0400F438002010B5214BC9
:10ABF000DB6853B11F4B1B7E5BB91E4B5B68092B97
:10AC000026D97846FEF70EF822E07846FEF70AF8D5
:10AC1000F0E77846FEF706F8EFE7164A5368013387
:10AC20005360092B21D97846FDF7FCFF1DE0114B3D
:10AC300000225A6019E00F4B1B7E1BB10D4B022204
:10AC40001A7012E0FFF7D4FE0FE00A4B1B7E83B9A7
:10AC5000084B5A68084B53F822309847044602289C
:10AC6000E9D00328E3D00128D7D0012CEDD0032C64
:10AC7000EBD010BDF4380020C07D0400104B1B68E1
:10AC80001B685A1E12F1030F18D8C3F30B020AB146
:10AC90000020704710B50B4AD3600023137653761B
:10ACA0000124147093600848FFF78AFF0749204683
:10ACB00001F07AF9FFF79AFF204610BD0020704797
:10ACC00014390020F438002011AA0200D1AC02008F
:10ACD00008B50B78032B06D00B4B1B78012B06D045
:10ACE000022B0BD008BD084B00221A76F4E7064B66
:10ACF0001B7E002BF6D1FFF779FFF3E70B78032BD0
:10AD0000F0D1FFF775FEEDE7F438002000B585B00F
:10AD1000174BDB6818784FF6FF7203F58051184423
:10AD200005F030FCE0B10246114BD9680B780B44BA
:10AD3000984217D00E4B5B7E83B10E4B01208DF8ED
:10AD4000000001920393042302930B4A694601F029
:10AD50003DF948B90120064B187606E0074BEDE7B0
:10AD6000012002E0012000E0002005B05DF804FBB6
:10AD7000F4380020248004001039002020800400D2
:10AD800008B5104BDB681878002203F58051184491
:10AD900005F0F8FB08B1012008BD0A4BDA68137909
:10ADA00051795B1A03F57F2303F6FF7302EB03333C
:10ADB0009A4205D002F58052024BDA600320EBE79D
:10ADC0000220E9E7F4380020F0B585B0514BDE6889
:10ADD00072793379591E8A4214D006F580510D7864
:10ADE0000D444D490968081D0F7907449B1A06EB6D
:10ADF00003366B88013B9BB247F6FE62934260D9F3
:10AE00002C461AE00120434B58767EE07846FDF749
:10AE100009FF15E024F47F6424F00F0404F5805446
:10AE200023781C44A64247D9A54247D26388013BF8
:10AE30009BB247F6FE62934211D92388002BE5D0DE
:10AE4000238804EB830323F47F6222F00F029342F2
:10AE5000E0D06288B2F5FE4FDCD01C46E2E7254622
:10AE60002FE07846FDF7DEFE15E024F47F6424F041
:10AE70000F0404F5805423781C44A64220D9A5422F
:10AE80003BD26388013B9BB247F6FE62934211D9E5
:10AE90002388002BE5D0238804EB830323F47F620F
:10AEA00022F00F029342E0D06288B2F5FE4FDCD070
:10AEB0001C46E2E7254604E0002502E0002500E00C
:10AEC0000025E5B1144B19686A8801F580513846B0
:10AED00005F058FB074690B101200E4B18768DF80F
:10AEE000000001950D4B0393042302930C4A69461D
:10AEF00001F06CF858B92C46CAE70025E1E7B5FA2D
:10AF000085F56D09034B5D76012005B0F0BD00208D
:10AF1000FBE700BFF4380020143900201C80040037
:10AF2000103900202DE9F04186B0644B1B692BB12C
:10AF3000624B5B6933B14FF0000846E07846FDF79D
:10AF400071FEF5E77846FDF76DFEF4E77846FDF70C
:10AF500069FE15E025F47F6525F00F0505F58055A0
:10AF60002B781D44AF421CD9AC421ED26B88013BEA
:10AF70009BB247F6FE62934211D92B88002BE5D095
:10AF80002B8805EB830323F47F6222F00F029342A8
:10AF9000E0D06A88B2F5FE4FDCD01D46E2E72C46D1
:10AFA00000E000241CB100943AE00024FAE70023FA
:10AFB0000093019B002B5CD14FF00108002C77D04F
:10AFC000628847F6FF739A4272D0B8F1000F73D1CE
:10AFD0003A4B5A6922F47F6626F00F06B61A06F538
:10AFE00080561C69DF683B797A799B1A07EB033737
:10AFF000002301936388013B9BB247F6FE629342B4
:10B00000D1D92546B9E77846FDF70CFE23E024F4B4
:10B010007F6424F00F0404F58054237823441C46F5
:10B02000A742C6D92388019A02EB83029642C0D96F
:10B03000009B634023F47F6323F00F03002BB8D100
:10B040006388013B9BB247F6FE618B42B1D8019207
:10B050002388002BD7D0238804EB830323F47F625B
:10B0600022F00F029342D2D06288B2F5FE4FD6D1C1
:10B07000CDE7124A526901208DF808000392009A28
:10B08000059204930E4A02A900F0A0FF70B90B4983
:10B09000019B23F003024B6913444B6114B1074B2E
:10B0A0001C618BE77846FDF7BDFDF8E7002000E066
:10B0B000012006B0BDE8F0810120FAE7F438002055
:10B0C0001039002000B585B040F6F8731B68B3F165
:10B0D000FF3F09D0B3F1FF3F0CD07BB1B3F1FF3F8D
:10B0E00037D0A3F580520FE01E4A1268B2F1FF3F3D
:10B0F000F0D103E01B4A1268002AEFD14FF08051D3
:10B100004B690A6902FB03F2A2F58052164B1A60E2
:10B11000164B1B6813F4801F16D0154B1B68062BAB
:10B1200012DD144BD3F8043540F6F8710968B1F11B
:10B13000FF3F13D0029201910F4A009240F2672222
:10B140000E49072003F07EFDFFF798FD05B05DF87E
:10B1500004FB044B1A68A2F58052D5E7014909683F
:10B16000E8E700BF14100010143900200C30002054
:10B1700008300020001001408C7D0400747D040024
:10B1800010B50446B0B1104B1B78BBB10E4BD9685B
:10B19000E3685879A3EB0032914211D31A79121A5D
:10B1A00002F57F2202F6FF7203EB0233994209D8BF
:10B1B000012004E07846FDF735FDE4E7002010BDEE
:10B1C0000020FCE70020FAE7F4380020024B187852
:10B1D000003818BF01207047F438002010B504462D
:10B1E0000E4B1B7893B92378032B13D10B4B9C6028
:10B1F000E268DA6000225A601A76012018705A76E6
:10B20000074900F0D1FEFFF7F1FC10BD7846FDF7CD
:10B2100009FDE8E77846FDF705FDE7E7F43800208B
:10B22000D1AC0200014B1868704700BF14390020F0
:10B2300010B5044680B163681BB123680BB1A368E5
:10B2400013B97846FDF7EEFCA3685A1E134207D1E6
:10B250000023E360236110BD7846FDF7E3FCEAE7D5
:10B260007846FDF7DFFCF3E7F8B500B30F46044678
:10B270008368F3B1EFF3108572B60369C268934235
:10B2800011D0016842688668013E334003FB021119
:10B2900017B138461BF079FE23690133236155B994
:10B2A00062B62846F8BD05B962B60525F9E70E2550
:10B2B000F7E70925F5E70025F3E700000246C0F3AC
:10B2C0000B0040BB49B310B401F6FF710C0B144BDB
:10B2D0000221C3F80415124BD3F80034002BFAD026
:10B2E00001460AE00E4BC3F808250D4BD3F8003495
:10B2F000002BFAD002F580520131A142F2D3084B63
:10B300000022C3F80425064BD3F80034002BFAD0F2
:10B310005DF8044B7047102070470920704700BF4C
:10B3200000E0014010F0030F2FD110B4044611F0DB
:10B33000030F2CD16AB312F0030F2CD19008174BD6
:10B340000122C3F80425154BD3F80034002BFAD0A2
:10B3500002E0043404311046421E50B10B68B3F1D0
:10B36000FF3FF6D023600D4BD3F80034002BFAD00A
:10B37000EFE70A4B0022C3F80425084BD3F800344A
:10B38000002BFAD05DF8044B704710207047102056
:10B39000F8E70920F6E70920F4E700BF00E00140E4
:10B3A000094B1B7813F0040F02D00378122B00D046
:10B3B0007047064B1A68064B5A60034B1A786FF3B6
:10B3C00082021A70F4E700BFC0390020B0390020B3
:10B3D0004C39002010B582B001900C46000C0128B9
:10B3E00010D12368094A136009490B7843F001031F
:10B3F0000B705B0883F0010303F00103137100205D
:10B4000002B010BD7846FDF70DFCEAE7B039002028
:10B41000C039002010B582B001900C46000C022803
:10B420000FD12268094B1A6022791A7100205871D5
:10B430009871D871064A137843F00203137002B072
:10B4400010BD7846FDF7EEFBEBE700BFA839002002
:10B45000C039002010B582B001900C46000C0328C2
:10B4600006D1054B186820601B79237102B010BD0E
:10B470007846FDF7D7FBF4E7B039002010B582B06D
:10B4800001900C46000C03280CD1084B2068186072
:10B4900022791A71064A137843F0010313700020D1
:10B4A00002B010BD7846FDF7BDFBEEE7B0390020D5
:10B4B000C039002010B582B001900C46000C042861
:10B4C00005D1054B03CB2060616002B010BD78460A
:10B4D000FDF7A8FBF5E700BFA839002010B582B042
:10B4E00001900C46000C04280BD1084B20686168C1
:10B4F00003C3074A137843F002031370002002B01D
:10B5000010BD7846FDF78EFBEFE700BFA83900209D
:10B51000C039002000B583B00190000C032806D18B
:10B52000054B00221A601A7103B05DF804FB7846DF
:10B53000FDF778FBF4E700BFB039002000B583B019
:10B540000190000C042806D1054B00221A605A60B5
:10B5500003B05DF804FB7846FDF764FBF4E700BF39
:10B56000A839002000B585B0184B1B7813F0400FA8
:10B570000FD0164B1B7813F0040F07D1144B5B68E8
:10B5800003F500530193B3F1807F06D905B05DF850
:10B5900004FB7846FDF746FBEBE70E4B1B788DF876
:10B5A00008300A4A137843F0040313700023ADF8FF
:10B5B0000C300323ADF80E3001A9039806F032F9E0
:10B5C0000028E3D07846FDF72DFBDFE7C0390020E7
:10B5D0004C390020C139002000B585B00022ADF8FB
:10B5E00009200F4B996801911B7B8DF808300D499C
:10B5F0000B780133DBB20B708DF80B30ADF80C20FB
:10B600000423ADF80E300DEB0301039806F00AF9A0
:10B6100010B905B05DF804FB7846FDF703FBF8E7C9
:10B620004C390020C139002000B585B00F4B9A6815
:10B6300001921A7B8DF808201B8AADF809300C4B5B
:10B640001B788DF80B300023ADF80C300423ADF8D7
:10B650000E300DEB0301039806F0E4F810B905B0C5
:10B660005DF804FB7846FDF7DDFAF8E74C39002079
:10B67000C139002000B58DB00B4B1B7B012B0ED0C8
:10B68000094A926804928DF80830039002238DF8DD
:10B69000043001A8FEF738FF0DB05DF804FB024A44
:10B6A0009268013A0492EEE74C39002008B51D4833
:10B6B0001D4B036000F024FF1C4B1B7813F0200F80
:10B6C0002AD103F00303032B14D1194B1968194A2B
:10B6D000916019791173B3F805001082DB79164A6D
:10B6E0001370164A1279934217D0B1B9114B002248
:10B6F0001A6007E00F4B00221A609A601A731A82D0
:10B70000FFF76AFF0B4B1A685A60084A137843F038
:10B7100040031370FFF726FF08BD084B1A68054B5E
:10B720001A60EFE79C390020A1B30200C039002065
:10B73000A83900204C390020C1390020B039002040
:10B7400010B582B00024ADF800400123ADF80230FE
:10B75000009806F098F8ADF804400223ADF80630E2
:10B76000019806F090F802B010BD000008B5002066
:10B7700006F0B0F8084B00221A605A609A60DA604E
:10B780001A61064A137803F0DF0343F04003137095
:10B79000FFF7E8FE08BD00BF4C390020C03900208B
:10B7A00038B50C4D00242C606C60AC60EC602C61F2
:10B7B00001F0DAF9084B5860084A9A60084ADA60E2
:10B7C0001C615C61074B1A7864F3C3021A706C60E9
:10B7D00038BD00BF4C3900202839002041B9020093
:10B7E00000879303C039002008B50C4B1B7813F079
:10B7F000100F00D008BD0A480A4B036000F080FE1D
:10B80000FFF754FFFFF79CFF074801F045F9034A93
:10B81000137843F010031370ECE700BFC039002029
:10B820004039002099BA020028390020034B1878CB
:10B83000800880F0010000F001007047C03900204E
:10B8400010B501F075FF174B1B7B1BBB154B9B7B8A
:10B850002BBB144B1A8A41F282639A4206D8124BD0
:10B860001B7813F0080F05D0012300E001231BB95A
:10B87000082410E00023FAE70A4B01221A7300247F
:10B880001C829A6801329A60FFF7A6FE2046FFF7F5
:10B89000F1FE00E0082401F08FFF204610BD0824CF
:10B8A000F9E700BF4C390020C039002010B501F085
:10B8B0003FFF214B5B7BABB11F4B9B7B03BB1E4B05
:10B8C0001A8A41F282639A4206D81C4B1B7813F005
:10B8D000080F05D0012300E001239BB1012302E002
:10B8E0000023FAE700231C460BB3134B00225A73C4
:10B8F0001B7B4BB1012B0ED07846FDF793F916E078
:10B900000023F0E70023EEE7FFF79AFF78B17846CF
:10B91000FDF788F90BE0084B002018605860187399
:10B920001882FFF7A7FEFFF757FEFFF71BFE01F097
:10B9300043FF204610BD00BF4C390020C039002015
:10B9400008B52C4B1B7BDBB1012B2ED07846FDF7C5
:10B9500069F9284A138A01339BB21382264AA2FB53
:10B9600003121209C2EB0212A3EB42039BB2002B9B
:10B970003DD0204B5B8A13B1013B1E4A538208BD68
:10B980001C4B1A8A41F282639A4206D81B4B1B78E1
:10B9900013F0080F07D0012300E00123002BD8D0BB
:10B9A000FFF784FFE5E70023F8E7124B1B8A41F21B
:10B9B0008262934206D8114A127812F0080F14D00E
:10B9C000012200E00122002AC3D042F2B0129342C9
:10B9D00002D9084B01225A73FFF768FF0028C8D12B
:10B9E000044B5B7B012BB4D1C3E70022EBE7FFF7ED
:10B9F0001BFEBEE74C39002089888888C0390020AA
:10BA000010B5244B1B7B002B35D10446214B5B8AA0
:10BA10002BBB1AB91F4B9B688B4205D3FAB11D4B48
:10BA20009B6801338B421AD21A4B9B682A338B4294
:10BA300023D3184B9B7B03BB164B996000221A60E3
:10BA40005A601A8242F6065159825A731A73FFF7E6
:10BA5000C3FDFFF787FD2046FFF70CFE0DE062B146
:10BA60000C4B9B6801338B4207D10A4B01225A735E
:10BA7000FFF71CFF01E0012B00D010BD002AFCD114
:10BA8000044B9B688B42F8D1024B01225A73FFF79B
:10BA90000DFFF2E74C3900200378042B00D07047EB
:10BAA00043681B78002BFAD010B58468027E437E71
:10BAB000012A14BF00220122416904F11000FFF79E
:10BAC0009FFF10BD1B4B1B7813F0400F30D010B5FB
:10BAD0000446194B1A685B689A4225D2164B1B7BA9
:10BAE000012B14D0154B9A4213D2134B1A685B6882
:10BAF000403B9A4215D2EFF3108172B60E4A13689A
:10BB0000581C1060236001B962B6002010BD0C4BB8
:10BB1000E9E7094B01225A73FFF7C8FE0028EAD172
:10BB2000E3E7FFF71FFDE6E7FFF71CFD0F20EDE75A
:10BB30000F207047C03900204C390020FFFF7F00E4
:10BB400000E0FF0008B538B10D4B01229A730D4A91
:10BB500013680133136008BD0A4B1B685BB1094AC7
:10BB60001368013B1360002BF5D1054B00229A733B
:10BB7000FFF79CFEEFE77846FDF754F8EFE700BFCC
:10BB80004C3900201C39002000B58DB0ADF80800FC
:10BB90008DF81020039103238DF8043001A8FEF7DF
:10BBA000B3FC0DB05DF804FB014B9868704700BF13
:10BBB0004C390020054B1B7B012B02D0034B9868AE
:10BBC0007047024B98680138704700BF4C3900201D
:10BBD000044B9B68584010F0010F00D0013B184601
:10BBE000704700BF4C390020014B187B704700BFE5
:10BBF0004C3900200F4B1B7813F0200F01D0082088
:10BC0000704770B50B4E43F0200333700A4DA860A7
:10BC1000297300242C82FFF7DFFC2046FFF72AFD62
:10BC20002C606C60337843F040033370FFF79AFC6C
:10BC3000204670BDC03900204C3900202DE9F0416C
:10BC4000002624E02449BC2303FB04F3CA5A013232
:10BC5000CA520221284602F079FD01370221284606
:10BC600002F044FD014679B11B4ABC2303FB0423C7
:10BC7000D3F80880B8F1000FE4D0BC2303FB04F331
:10BC8000D25A3046C047DDE797B90136F6B2022EE8
:10BC90001FD83446BC2303FB06F308330E4D1D4466
:10BCA00004350221284602F021FD01460027DAE78B
:10BCB000284602F0B3FD0828E7D1074BBC2202FB5F
:10BCC0000434A368002BE0D0002204493046984792
:10BCD000DBE70120BDE8F081CC390020F87D0400CD
:10BCE00008B5082383731023437300F11C034361D9
:10BCF0000323037300F1180303610C3002F060FDAD
:10BD000008BD000008B50378012B06D0022B06D031
:10BD10007846FCF787FF002002E0292000E0014878
:10BD200008BD00BF084C010008B50378012B07D0FF
:10BD3000022B15D07846FCF775FF4FF4FA730AE032
:10BD40008368591A21F0030303EB9103DB0003EB33
:10BD5000910303F5FA730748984228BF184608BDB7
:10BD60008368591A090B044B03FB01F303F5FA73BB
:10BD7000F1E700BF60850100084C010038B50446BA
:10BD800001210C3002F0B2FC054678B1084BC4F832
:10BD90009C300023C4F8A0306168FFF7C5FFC4F8E9
:10BDA000A800C4F8AC40012384F8B830284638BD58
:10BDB000D1BE020010B50446FFF7E0FF20B104F148
:10BDC0009C000EF06FFD00B910BD7846FCF72AFF0D
:10BDD000FAE70000F8B505460C46164617680378E2
:10BDE000012B19D11249A1FB043149098B00AC6820
:10BDF000E41BB4EB810F00D31C468CB1686827F0BC
:10BE00000307E968224639443844FFF78BFA58B9EA
:10BE100033681C443460F8BD7846FCF703FFE1E763
:10BE20007846FCF7FFFEE9E77846FCF7FBFEEFE714
:10BE30007D0CCEC7F8B506460C4615461768037844
:10BE4000022B17D1114BA3FB04231B0C1A03B4685C
:10BE5000E41BB4EB033F00D314467CB1706827F0B9
:10BE6000030721463844FFF729FA58B92B681C44C8
:10BE70002C60F8BD7846FCF7D5FEE3E77846FCF782
:10BE8000D1FEEBE77846FCF7CDFEEFE7EB0661C5A8
:10BE900038B505460C4611462378012B06D0022BF7
:10BEA0000FD07846FCF7BEFE002304E0021D2046BA
:10BEB000FFF790FFA3686868984214BF0020012034
:10BEC00038BD021D2046FFF7B5FFA368F3E7000069
:10BED0002DE9F8430F46D1F8A850254B1B786BB9D4
:10BEE0000446A5F5FA7501F10C080121404602F05F
:10BEF000FDFB064648B14FF0000924E00EF00EFDB0
:10BF0000002387F8B830BDE8F8837846FCF78AFE4E
:10BF1000F1E70EF003FD0121404602F017FC00237B
:10BF20007B6087F8B830134B186801F099FC3846ED
:10BF3000FFF740FFE7E7A4EB00093046FFF7E2FE1A
:10BF40004844A8420DD8A5EB090231463846FFF710
:10BF50009FFF0028DDD101F0C3FAB0EB0409ECD556
:10BF6000E9E70EF0DBFC3846FFF724FFCBE700BF24
:10BF7000C8390020C439002010B5084801F050FC31
:10BF8000074B1860002406E0064BBC2000FB043081
:10BF9000FFF7A6FE0134022CF6D910BD3DBC02000D
:10BFA000C4390020CC39002038B504460D4602289B
:10BFB00005D80548BC2303FB0404A56038BD7846BA
:10BFC000FCF730FEF5E700BFCC3900202DE9F8433F
:10BFD00005460C461746022816D8CCB12378012B0B
:10BFE0001AD0022B3ED16368C3F30B03002B31D16F
:10BFF000A368C3F30B03002B30D1A368002B34D10B
:10C000007846FCF70FFE30E07846FCF70BFEE4E7DD
:10C010007846FCF707FEE1E7636813F0030F0DD1E4
:10C02000E36813F0030F0DD1A36813F0030F0DD1D4
:10C03000A368D3B97846FCF7F5FD16E07846FCF71F
:10C04000F1FDEDE77846FCF7EDFDEDE77846FCF70E
:10C05000E9FDEDE77846FCF7E5FDC9E77846FCF732
:10C06000E1FDCAE77846FCF7DDFDEFF3108872B614
:10C07000BC2606FB05F606F108032A4E1E440436CC
:10C080000021304602F032FB814678B30021304671
:10C0900002F05CFB20686168A268E368C9F80000F0
:10C0A000C9F80410C9F80820C9F80C302FB11D4A8E
:10C0B000BC2303FB05235B883B801A4ABC2303FB9C
:10C0C00005235A8801325A8093F8B83083B9164B49
:10C0D0001B7813B10024A1460CE0124BBC2000FBDE
:10C0E0000530FFF74BFE8146002403E0042401E005
:10C0F0000024A146B8F1000F00D162B6B9F1000FDB
:10C1000009D0BC2000FB05F09830064D28440430CF
:10C110000EF0C8FB10B92046BDE8F8837846FCF75E
:10C1200081FDF8E7CC390020C839002038B5044635
:10C13000EFF3108572B610B9164B1B6873B18CB152
:10C14000144A136801331360124B1B68003B18BF7D
:10C150000123114A137005B962B638BD7846FCF761
:10C1600061FDECE70B4B1C68013C1C6034B1EBE754
:10C17000BC2000FB0420FFF71DFE0134022CE3D895
:10C18000064ABC2303FB042393F8B830002BF4D1F8
:10C19000EEE700BF003C0020C8390020CC39002069
:10C1A00018B1830B024AD05C70470020704700BF73
:10C1B000087E040012DF704700B583B001F09EFFD7
:10C1C00040B10C4B1B6813F0400F03D00A4B1B68A7
:10C1D000012B02DC03B05DF804FB084BD3F80435F7
:10C1E0000190074A009275220649022002F02AFDBA
:10C1F000F0E700BF0C3000200830002000100140A4
:10C20000487E04003C7E040000B58DB0114B1B78C5
:10C21000022B06D07846FCF705FD01200DB05DF835
:10C2200004FBFFF703FB18B90B48FEF795F9F4E799
:10C230000FF0A8F8074B03221A702C22002101A846
:10C240001AF0CCFE1D238DF8043001A8FEF75CF92E
:10C25000E3E700BF083C0020FC2F00200B4B1B78BD
:10C26000042B00D0704700B58DB0084B05221A7022
:10C270002C22002101A81AF0B1FE1C238DF80430F5
:10C2800001A8FEF741F90DB05DF804FB083C002061
:10C2900008B50378122B00D008BD0448FEF76CF9EE
:10C2A000034B186801F0DCFAF6E700BFFC2F002012
:10C2B000043C002070B58AB00FF0A6F848B30646DB
:10C2C00000238DF8103005AC05460FCD0FC42B6848
:10C2D0002360727D052A04D9337D03F00F03072BF9
:10C2E0001ED1174B1A688AB104AB0393337DC3F395
:10C2F00003038DF80430737D062B1BD9063B8DF8A4
:10C30000053006F11D03029301A8904730460FF057
:10C310005BF80FF095F880F00100C0B20AB070BD74
:10C32000307D04AB063A06F11D0100F00F000DF060
:10C330007BFDD6E700238DF805300293E4E700BFCC
:10C340000C3C002070B582B0314B1B78002B54D1CF
:10C350000446002855D0067A0F2E01D0062E52D161
:10C3600006F0C0F9E06870B1FCF76EFC0DF1070053
:10C37000FFF720FF0546002840D19DF80730012B2C
:10C3800004D002253AE0FCF76DFCEFE7FCF790FCE7
:10C3900000F06EFB304601F079F9E07800F092F998
:10C3A00000F06AFF0EF000FA1A480FF0E5F80DF001
:10C3B000E3FE0DF01BFDFFF7DFFD05F0F7F900F0E0
:10C3C000B7FD06F04FF905F013FF204601F0A4FD7C
:10C3D000FDF716FD04F058FCFCF772FB08B10628C7
:10C3E00013D10D4801F01CFA0C4B18600C4B0022C5
:10C3F0001A60074B01221A7000E00825284602B097
:10C4000070BD0E25FAE70725F8E70546F6E700BFF9
:10C41000083C0020B5C2020009C20200043C002012
:10C420000C3C002010B582B0204B1B78012B0DD0A6
:10C430005AB2002A35D0043BDBB2012B33D80EF0C0
:10C4400021FA044628B3204602B010BD01F074FD65
:10C45000FDF718FDFCF734FB0446B8B1062815D0EB
:10C46000134B1B6813F4804FEDD0124B1B68012B4C
:10C47000E9DD114BD3F804350190104A009240F2E7
:10C4800089120F49022002F0DDFBDCE701F02AF9F6
:10C49000D5E7064B02221A700A4B186801F0E0F942
:10C4A000D1E70824CFE70824CDE700BF083C0020EF
:10C4B0000C3000200830002000100140747E040081
:10C4C0003C7E0400043C002008B5094B1B78032B7C
:10C4D00001D0082008BD064B04221A7005480EF052
:10C4E00085F90028F6D07846FCF79CFB0020F1E7A0
:10C4F000083C00205DC2020008B5FDF7C7FC08BD7E
:10C5000008B5FEF729F808BD08B5FEF735F808BDEF
:10C5100008B500F077FE002008BD08B507F09AFCCA
:10C5200008BD0000064A136801331360B3F1704F71
:10C5300002D0034B18687047134601221A60F8E7CF
:10C54000103C002010B5044618B10023236063603E
:10C5500010BD7846FCF766FBF7E738B50C46054694
:10C5600068B184B100236360EFF3108372B62A6868
:10C570006AB16A6854606C6003B962B638BD7846C7
:10C58000FCF750FBEDE77846FCF74CFBEAE72C6044
:10C59000F1E710B5044658B1EFF3108372B6206886
:10C5A00008B142682260226832B103B962B610BD98
:10C5B0007846FCF737FBEFE76260F6E710B5044614
:10C5C00008B1206810BD7846FCF72CFBF9E738B5B8
:10C5D0000C46054688B1A4B12046FFF7EFFF58B1DD
:10C5E0002846FFF7EBFF80B16B6822685A606368EA
:10C5F0006B602046FFF7A6FF38BD7846FCF712FBBC
:10C60000E9E77846FCF70EFBE6E794E8030085E8E7
:10C6100003002046FFF796FFEEE7037A13B10023ED
:10C620000372704743681B6804334360704710B55A
:10C6300084B00446416803681A1D91420DD06368B6
:10C6400018682268516888421CD063681A6852686A
:10C650001A600123237204B010BD019302930023DA
:10C660008DF80C30029B1B68002BE8D062681268C2
:10C670009A4203D001A8FFF7D0FFF3E701A8FFF724
:10C68000D6FFE8E7934202D0043B5360DDE7002386
:10C690005360DAE735DF704708B54FF0FF30FFF73A
:10C6A000F9FFBFF34F8F0549CA6802F4E062044BFB
:10C6B0001343CB60BFF34F8F00BFFDE700ED00E0F9
:10C6C0000400FA05072814D8DFE800F0080C150468
:10C6D000110F0A066420704714207047FA20704733
:10C6E0001E2070474FF4FA707047322070474B207D
:10C6F0007047FA207047962070470000024B586838
:10C70000103840B2704700BF00ED00E0034600283B
:10C710000FDB5B11084A52F82330424200F01F0041
:10C7200002F01F0258BF504223FA00F000F001004F
:10C73000704700F11F03ECE700E100E046DF7047BF
:10C74000F8B504460D464B1EDBB2012B09D8002379
:10C7500023616361A361E3612046FFF7EFFF0120DE
:10C7600016E07846FCF75EFAF1E7CA5CCE18520094
:10C77000D2B2767842EAD612CA5401339BB20E2B5B
:10C78000F3D9CB7B5B00CB73002F08DB0130C0B249
:10C79000A8420BD8214611F9207F0023EFE794F837
:10C7A0002F3083F0870384F82F30EFE7F8BD2DE9B1
:10C7B000F04190B084460C4696461F4602F10F08A1
:10C7C0004FEA281604AD0068DCF80410DCF80820F5
:10C7D000DCF80C300FC50EF00F055FEA181302D01D
:10C7E0007DB1002300E00023984663B1012104A835
:10C7F000FFF7A6FFB8F1000F1AD0701E000110233A
:10C800000EE00123F0E70221F1E7013B9BB2221881
:10C81000D25C10A9194411F8101C4A400DF80320ED
:10C82000002BF2D100250C950D950E950F9533E058
:10C83000711EADB22A4604EB011168461AF0A5FB41
:10C8400080230DF805306B1C03E000220DF8032057
:10C8500001330F2BF9DD10230AE0013B9BB21DF8D9
:10C86000032010A9194411F8101C4A400DF80320A8
:10C87000002BF2D1D6E7013A92B210AB134413F871
:10C88000100C63189B5C584008AB9854002AF2D1F6
:10C8900004A8FFF753FF0135731EAB4202DD2901E7
:10C8A0001022F3E710230AE0013B9BB210AAD11833
:10C8B00011F8402C11F8101C4A4008A9CA54002B4A
:10C8C000F2D104A8FFF73AFF0CAC0FCC38607960C6
:10C8D000BA60FB6010B0BDE8F081000010B50446FE
:10C8E000134B1B6893B14168114B1B685B68CB1AF3
:10C8F000002B0BDB0E4B1B6818465B691BB15A689B
:10C90000521A002AF8DB6361446103E0084B1A689D
:10C9100062611C60064A93889BB201339BB293808C
:10C9200013B10123237010BD7846FCF77BF9F8E7BB
:10C93000183C002038B505461CE07846FCF772F933
:10C940006369204A13600023636193889BB2591E78
:10C9500089B29180F3B1A36803B302232370A36863
:10C9600021692846984700F0FFF805462378DBB296
:10C97000022B17D0134B1B681BB3124B1B685B6851
:10C980005B1B642B1DD50F4B1C682378DBB2012B7E
:10C99000D6D0D2E77846FCF745F9DCE77846FCF7D5
:10C9A00041F9DAE7E26812B900232370E2E763682D
:10C9B000134463605B1B642BF9D42046FFF78EFFA2
:10C9C000D8E738BD183C002010B50446144B1B684E
:10C9D000834207D0124B1B68D3B15A69A2420ED0D2
:10C9E0001346F9E743690E4A136093889BB2591EB8
:10C9F00089B2918063B97846FCF714F908E062695E
:10CA00005A6107498B889BB25A1E92B28A8013B131
:10CA10000023237010BD7846FCF704F9F8E700BF47
:10CA2000183C002008B5064B1B6833B1044B1B684B
:10CA30000449586800F044F908BD00F09FF9FBE78D
:10CA4000183C002061CA020008B500F08DF8FFF71D
:10CA500071FF00F089F8FFF7E5FF012008BD000035
:10CA600008B5024B186800F0FBFE08BD143C00201E
:10CA700008B5064B00221A605A60054800F0D0FE47
:10CA8000044B186000F063F808BD00BF183C00209C
:10CA900049CA0200143C002010B5044600F0B4FF5F
:10CAA00080B19CB1A368ABB12378DBB2012B15D068
:10CAB000002363612046FFF711FF00F055F8FFF7F0
:10CAC000B1FF10BD7846FCF7ADF8EAE77846FCF711
:10CAD000A9F8E7E77846FCF7A5F8E5E77846FCF71C
